:020000040000FA
:100000000C945E000C9486000C9486000C94860080
:100010000C9486000C9486000C9486000C94860048
:100020000C9486000C9486000C9486000C94860038
:100030000C9486000C9486000C9486000C94860028
:100040000C942A030C9486000C949A030C94740369
:100050000C9486000C9486000C9486000C94860008
:100060000C9486000C948600000000080002010039
:100070000003040700000000000000000000000072
:10008000250028002B0000000000240027002A0083
:10009000040404040404040402020202020203032E
:1000A0000303030301020408102040800102040836
:1000B0001020010204081020CC03FB0511241FBEF0
:1000C000CFEFD8E0DEBFCDBF21E0A4E4B1E001C0B6
:1000D0001D92A43FB207E1F711E0A0E0B1E0E2E336
:1000E000F1E102C005900D92A434B107D9F710E0F8
:1000F000CDE5D0E004C02197FE010E949406CC35E6
:10010000D107C9F70E9403040C948C080C940000DA
:1001100090E0FC01EC55FF4F249180579F4FFC016C
:100120008491882399F090E0880F991FFC01EA5789
:10013000FF4FA591B491FC01E458FF4F8591949134
:100140008FB7F894EC91E22BEC938FBF089590E079
:10015000FC01E859FF4F2491FC01EC55FF4F34910D
:10016000FC01E057FF4FE491EE23C9F0222339F060
:10017000233001F1A8F4213019F1223029F1F0E007
:10018000EE0FFF1FE458FF4FA591B4918FB7F8947D
:10019000EC91611126C030953E233C938FBF0895AA
:1001A0002730A9F02830C9F0243049F78091800029
:1001B0008F7D03C0809180008F7780938000DFCF98
:1001C00084B58F7784BDDBCF84B58F7DFBCF8091E5
:1001D000B0008F778093B000D2CF8091B0008F7D38
:1001E000F9CF3E2BDACF3FB7F8948091450190913B
:1001F0004601A0914701B091480126B5A89B05C0D2
:100200002F3F19F00196A11DB11D3FBFBA2FA92F95
:10021000982F8827BC01CD01620F711D811D911D92
:1002200042E0660F771F881F991F4A95D1F70895FE
:100230008F929F92AF92BF92CF92DF92EF92FF92F6
:100240004B015C010E94F3006B017C010E94F300F2
:100250006C197D098E099F09683E734081059105DF
:10026000A8F321E0821A9108A108B10888EEC80E0F
:1002700083E0D81EE11CF11C81149104A104B10497
:1002800029F7FF90EF90DF90CF90BF90AF909F90B5
:100290008F9008950895AF92BF92CF92DF92EF9220
:1002A000FF920F931F93CF93DF936C017B018B0120
:1002B000040F151FEB015E01AE18BF08C017D10770
:1002C00059F06991D601ED91FC910190F081E02DFA
:1002D000C6010995892B79F7C501DF91CF911F914F
:1002E0000F91FF90EF90DF90CF90BF90AF90089567
:1002F000FC01538D448D252F30E0842F90E0821B2C
:10030000930B541710F0CF96089501970895FC01B0
:10031000918D828D981761F0A28DAE0FBF2FB11D08
:100320005D968C91928D9F5F9F73928F90E0089560
:100330008FEF9FEF08952FB7F89480914901909126
:100340004A01A0914B01B0914C012FBF8093550100
:1003500090935601A0935701B09358018DE491E01A
:100360000E94870197FF26C02FB7F894809149011A
:1003700090914A01A0914B01B0914C012FBF409147
:100380005501509156016091570170915801841B9D
:10039000950BA60BB70B4091510150915201609102
:1003A00053017091540184179507A607B707B0F25F
:1003B0008FEF9FEF0895FC01918D828D981731F09A
:1003C000828DE80FF11D858D90E008958FEF9FEFEE
:1003D0000895FC01918D228D892F90E0805C9F4FC4
:1003E000821B91098F73992708958DE491E00E94F3
:1003F000E90121E0892B09F420E0822F089580E0B3
:1004000090E0892B29F00E94F50181110C940000E5
:100410000895FC01A48DA80FB92FB11DA35ABF4F99
:100420002C91848D90E001968F739927848FA689F3
:10043000B7892C93A089B1898C91837080648C9347
:10044000938D848D981306C00288F389E02D8081F6
:100450008F7D80830895EF92FF920F931F93CF9328
:10046000DF93EC0181E0888F9B8D8C8D98131AC0EF
:10047000E889F989808185FF15C09FB7F894EE89D6
:10048000FF896083E889F989808183708064808333
:100490009FBF81E090E0DF91CF911F910F91FF907E
:1004A000EF900895F62E0B8D10E00F5F1F4F0F7326
:1004B0001127E02E8C8D8E110CC00FB607FCFACFE1
:1004C000E889F989808185FFF5CFCE010E94090274
:1004D000F1CFEB8DEC0FFD2FF11DE35AFF4FF082B2
:1004E0009FB7F8940B8FEA89FB8980818062CFCF18
:1004F000CF93DF93EC01888D8823B9F0AA89BB895B
:10050000E889F9898C9185FD03C0808186FD0DC045
:100510000FB607FCF7CF8C9185FFF2CF808185FF66
:10052000EDCFCE010E940902E9CFDF91CF9108956E
:10053000FC0101900020E9F73197AF01481B590BEE
:10054000BC018DE491E00C944B01CF93DF93EC015F
:1005500088819981009711F00E94360719821882CC
:100560001D821C821B821A82DF91CF910895FC01AB
:1005700080819181009711F00C94360708950F93B4
:100580001F93CF93DF93EC0188819981009759F0F5
:100590002A813B812617370730F081E0DF91CF9128
:1005A0001F910F9108958B016F5F7F4F0E94BF07CE
:1005B000009759F0998388831B830A832C813D819E
:1005C000232B59F7FC011082E8CF80E0E7CFEF92B0
:1005D000FF920F931F93CF93DF938C017B016115E3
:1005E000710561F0EB0109900020E9F72197C61B26
:1005F000D70BBE010E94BF0281110BC0C8010E942F
:10060000A502C801DF91CF911F910F91FF90EF904C
:100610000895F801D583C483B701808191810E9438
:100620008508EFCFCF93DF93EC0170E060E00E948C
:10063000BF02811105C0CE01DF91CF910C94A502BC
:100640001D821C8262E471E088819981DF91CF91E3
:100650000C9485081F920F920FB60F9211242F93BE
:100660003F938F939F93AF93BF9380914901909154
:100670004A01A0914B01B0914C013091440123E01B
:10068000230F2D3758F50196A11DB11D209344016C
:100690008093490190934A01A0934B01B0934C0180
:1006A0008091450190914601A0914701B091480188
:1006B0000196A11DB11D8093450190934601A09321
:1006C0004701B0934801BF91AF919F918F913F91A6
:1006D0002F910F900FBE0F901F90189526E8230FB3
:1006E0000296A11DB11DD2CF1F920F920FB60F928D
:1006F00011242F933F934F935F936F937F938F9327
:100700009F93AF93BF93EF93FF938DE491E00E948B
:100710000902FF91EF91BF91AF919F918F917F91CE
:100720006F915F914F913F912F910F900FBE0F905E
:100730001F9018951F920F920FB60F9211242F93AE
:100740008F939F93EF93FF93E0915D01F0915E0192
:100750008081E0916301F091640182FD1BC0908172
:10076000809166018F5F8F7320916701821741F03E
:10077000E0916601F0E0E35BFE4F958F80936601A8
:10078000FF91EF919F918F912F910F900FBE0F903E
:100790001F9018958081F4CFEDE4F1E0138212826E
:1007A00088EE93E0A0E0B0E084839583A683B783CE
:1007B00089E291E09183808385EC90E0958784873E
:1007C00084EC90E09787868780EC90E0918B808B1B
:1007D00081EC90E0938B828B82EC90E0958B848B04
:1007E00086EC90E0978B868B118E128E138E148E72
:1007F000EAEEF1E0118210821382128215821482D5
:10080000CF010C941203CF93DF93CDB7DEB7A3973C
:100810000FB6F894DEBF0FBECDBF789484B582606A
:1008200084BD84B5816084BD85B5826085BD85B594
:10083000816085BD80916E00816080936E00109212
:10084000810080918100826080938100809181008D
:10085000816080938100809180008160809380001E
:100860008091B10084608093B1008091B00081607C
:100870008093B00080917A00846080937A008091A8
:100880007A00826080937A0080917A008160809300
:100890007A0080917A00806880937A001092C1007B
:1008A000E0915D01F0915E0182E08083E091590169
:1008B000F0915A011082E0915B01F0915C018FECA4
:1008C000808310926501E0916101F091620186E000
:1008D0008083E0915F01F09160018081806180837D
:1008E000E0915F01F0916001808188608083E091F8
:1008F0005F01F0916001808180688083E0915F01F9
:10090000F091600180818F7D808382E00E94880069
:1009100083E00E9488002AE0822E912CA12CB12C29
:1009200000E010E08DE491E00E94E901892B09F4D8
:1009300023C11A8219821C821B821E821D82CE0153
:1009400001960E9412030E949B0197FD1FC08A30EE
:100950009105E1F08AA31BA2ED80FE808FEFE81ADB
:10096000F80AB701CE0101960E94BF02882359F30D
:1009700029813A818D819E81BE016E5D7F4F820FFC
:10098000931F0E948508FE82ED82DDCF8091EA01EF
:100990009091EB01009709F4FDC069817A8161159E
:1009A000710509F4F5C04091EC015091ED012D81E4
:1009B0003E814217530708F4EBC00E9485088D81E1
:1009C0009E819093EF018093EE011E821D82CE01E5
:1009D00001960E94B7021A8219821C821B821E8213
:1009E0001D82CE0101960E941203E090EE01F0906C
:1009F000EF01E114F104F9F093E0E916F10418F0C5
:100A000093E0E92EF12CE091EA01F091EB01EE0D7B
:100A1000FF1DD08010826091EA017091EB01CE0140
:100A200001960E94E7028091EA019091EB01E80EA5
:100A3000F91EF701D082CE0101960E94B702C09044
:100A4000EE01D090EF011A8219821C821B821E8255
:100A50001D82CE0101960E9412038091EE019091B9
:100A6000EF010097E9F076018E159F0508F47C01EF
:100A7000E091EA01F091EB01EE0DFF1DD0801082B4
:100A80006091EA017091EB01CE0101960E94E702AC
:100A90008091EA019091EB01E80EF91EF701D082F6
:100AA00089819A81009709F48CC00E94FF05709398
:100AB000010160930001CE0101960E94B70261E03E
:100AC00070E080E090E00E94180187E391E00E94CE
:100AD0009802C0900001D09001010D2C000CEE088E
:100AE000FF08F7FE72C06DE28DE491E00E942B02D8
:100AF00022273327A9012C193D094E095F0919A2A4
:100B0000CE0181967C01CA01B901A50194010E9420
:100B10007206605DF70162937F0121153105410581
:100B2000510589F7E114F10419F0C7010E949802F8
:100B300080E491E00E949802E0910001F0910101AF
:100B4000E85FFE4FE08088E0F82E6E2D617082E055
:100B50000E94A700E69461E083E00E94A70060E0A5
:100B600083E00E94A700FA94F110EFCF64EF71E0E8
:100B700080E090E00E9418010115110509F4D2CE21
:100B80000E94F501882309F4CDCE0E940000CACE50
:100B90000E94360789819A819093EB018093EA0144
:100BA0008B819C819093ED018093EC018D819E81DE
:100BB0009093EF018093EE011A8219821C821B82AE
:100BC00004CF60E070E0CB0172CFA701960119A2BB
:100BD000CE0181967C01CA01B901A50194010E9450
:100BE0007206605DF70162937F01211531054105B1
:100BF000510589F797CF8AEE91E00C94B7021F93C5
:100C0000FC0199278827BC01E89411911032E9F37F
:100C1000193010F01E30C8F31B3251F01D3249F468
:100C2000689406C00E942606610F711D811D911DEA
:100C3000119110531A30B0F33EF490958095709551
:100C400061957F4F8F4F9F4F1F910895592F482FC8
:100C5000372F262F660F771F881F991F660F771F64
:100C6000881F991F620F731F841F951F660F771FC0
:100C7000881F991F08952F923F924F925F926F9213
:100C80007F928F929F92AF92BF92CF92DF92EF921C
:100C9000FF920F931F93CF93DF93CDB7DEB7CA1B9D
:100CA000DB0B0FB6F894DEBF0FBECDBF09942A88C8
:100CB000398848885F846E847D848C849B84AA8470
:100CC000B984C884DF80EE80FD800C811B81AA81FD
:100CD000B981CE0FD11D0FB6F894DEBF0FBECDBFC8
:100CE000ED010895A1E21A2EAA1BBB1BFD010DC048
:100CF000AA1FBB1FEE1FFF1FA217B307E407F507CC
:100D000020F0A21BB30BE40BF50B661F771F881FA7
:100D1000991F1A9469F760957095809590959B013D
:100D2000AC01BD01CF010895EE0FFF1F0590F491B6
:100D3000E02D09940F931F93CF93DF938230910599
:100D400010F482E090E0E091F201F091F30130E0E4
:100D500020E0B0E0A0E0309799F42115310509F4C6
:100D60004AC0281B390B24303105D8F58A819B8174
:100D70006115710589F1FB0193838283FE0111C026
:100D8000408151810281138148175907E0F04817CB
:100D9000590799F4109761F012960C9312971396D5
:100DA0001C933296CF01DF91CF911F910F9108953F
:100DB0000093F2011093F301F4CF2115310551F0A6
:100DC0004217530738F0A901DB019A01BD01DF0189
:100DD000F801C1CFEF01F9CF9093F3018093F201B5
:100DE000CDCFFE01E20FF31F819391932250310981
:100DF00039832883D7CF2091F0013091F101232B43
:100E000041F420910401309105013093F1012093C8
:100E1000F00120910201309103012115310541F4C7
:100E20002DB73EB74091060150910701241B350BA9
:100E3000E091F001F091F101E217F307A0F42E1B0D
:100E40003F0B2817390778F0AC014E5F5F4F24172E
:100E5000350748F04E0F5F1F5093F1014093F001AA
:100E6000819391939FCFF0E0E0E09CCFCF93DF930D
:100E70000097E9F0FC01329713821282A091F201EF
:100E8000B091F301ED0130E020E01097A1F4208152
:100E90003181820F931F2091F0013091F1012817C9
:100EA000390709F061C0F093F101E093F001DF919F
:100EB000CF910895EA01CE17DF07E8F54A815B81FB
:100EC0009E0141155105B1F7E901FB83EA83499180
:100ED0005991C40FD51FEC17FD0761F480819181F2
:100EE0000296840F951FE9019983888382819381FB
:100EF0009B838A83F0E0E0E012968D919C9113979A
:100F00000097B9F52D913C911197CD010296820F72
:100F1000931F2091F0013091F1012817390739F61C
:100F2000309751F51092F3011092F201B093F10154
:100F3000A093F001BCCFD383C28340815181840F41
:100F4000951FC817D90761F44E5F5F4F888199815B
:100F5000480F591F518340838A819B8193838283E9
:100F60002115310509F0B0CFF093F301E093F201C0
:100F70009ECFFD01DC01C0CF13821282D7CFB0E03B
:100F8000A0E0E5ECF7E00C943D068C01009751F4ED
:100F9000CB010E949A068C01C801CDB7DEB7E0E113
:100FA0000C945906FC01E60FF71F9C0122503109F1
:100FB000E217F30708F49DC0D901CD91DC91119798
:100FC000C617D70798F0C530D10530F3CE01049786
:100FD0008617970708F3C61BD70B2297C193D193A7
:100FE0006D937C93CF010E943607D6CF5B01AC1A7C
:100FF000BD0A4C018C0E9D1EA091F201B091F3012F
:10100000512C412CF12CE12C109731F58091F001FD
:101010009091F1018815990509F05CC046165706B4
:1010200008F058C08091020190910301009741F4AB
:101030008DB79EB74091060150910701841B950B17
:10104000E817F90708F055C0F093F101E093F001BB
:10105000F90171836083A0CF8D919C9111971296B5
:101060006C90129713967C901397A815B90559F5B3
:101070006C0142E0C40ED11CCA14DB0420F1AC01A7
:101080004A195B09DA011296159780F06282738221
:1010900051834083D9016D937C93E114F10471F085
:1010A000D7011396FC93EE93129776CF22968C0F6E
:1010B0009D1FF90191838083F301EFCFF093F3013A
:1010C000E093F20169CF4816590608F42C017D011E
:1010D000D3019ACFCB010E949A067C01009749F078
:1010E000AE01B8010E947C08C8010E943607870142
:1010F00053CF10E000E050CFFB01DC0102C00190B3
:101100000D9241505040D8F70895FB01DC01019049
:101110000D920020E1F7089510E0CDE5D0E004C085
:10112000FE010E9494062196CE35D107C9F7F894A6
:10113000FFCF24000000F40180003F30DB4F666DDC
:101140007D277F6F76733004081020408003070FDF
:101150001F3F7FFF010101000000002B024B0178BF
:10116000017802E9018701DB01646174613A2020A2
:0611700020000D0A000042
:107800000C94343C0C94513C0C94513C0C94513CE1
:107810000C94513C0C94513C0C94513C0C94513CB4
:107820000C94513C0C94513C0C94513C0C94513CA4
:107830000C94513C0C94513C0C94513C0C94513C94
:107840000C94513C0C94513C0C94513C0C94513C84
:107850000C94513C0C94513C0C94513C0C94513C74
:107860000C94513C0C94513C11241FBECFEFD8E036
:10787000DEBFCDBF11E0A0E0B1E0ECE9FFE702C060
:1078800005900D92A230B107D9F712E0A2E0B1E065
:1078900001C01D92AD30B107E1F70E942D3D0C945F
:1078A000CC3F0C94003C982F959595959595959582
:1078B000905D8F708A307CF0282F295A8091C0000B
:1078C00085FFFCCF9093C6008091C00085FFFCCF60
:1078D0002093C6000895282F205DF0CF982F809127
:1078E000C00085FFFCCF9093C6000895EF92FF92F1
:1078F0000F931F93EE24FF2487018091C00087FD22
:1079000017C00894E11CF11C011D111D81E4E8164B
:1079100082E4F8068FE0080780E0180770F3E09132
:107920000401F091050109958091C00087FFE9CF1E
:107930008091C6001F910F91FF90EF9008950E94D3
:10794000763C982F8091C00085FFFCCF9093C600B5
:1079500091362CF490330CF09053892F089597555D
:10796000892F08951F930E949F3C182F0E949F3CCF
:107970001295107F810F1F9108951F93182F882350
:1079800021F00E94763C1150E1F71F9108951F935A
:10799000182F0E94763C803249F0809103018F5F5E
:1079A000809303018530C1F01F9108958091C0003C
:1079B00085FFFCCF84E18093C6008091C00085FFE5
:1079C000FCCF1093C6008091C00085FFFCCF80E102
:1079D0008093C6001F910895E0910401F091050184
:1079E00009951F9108950E94763C803241F0809164
:1079F00003018F5F80930301853081F008958091AA
:107A0000C00085FFFCCF84E18093C6008091C00058
:107A100085FFFCCF80E18093C6000895E0910401CA
:107A2000F09105010995089540E951E08823A1F0FE
:107A30002D9A28EE33E0FA013197F1F721503040CA
:107A4000D1F72D9828EE33E0FA013197F1F7215064
:107A50003040D1F7815061F708953F924F925F9285
:107A60006F927F928F929F92AF92BF92CF92DF924E
:107A7000EF92FF920F931F93CF93DF93000080E16B
:107A80008093C4001092C50088E18093C10086E015
:107A90008093C2005098589A259A81E00E94143D24
:107AA00024E1F22E9EE1E92E85E9D82E0FE0C02ECA
:107AB00010E1B12EAA24A394B1E49B2EA6E58A2E50
:107AC000F2E57F2EE0E26E2E79E4572E63E5462E36
:107AD00050E5352E0E94763C8033B1F18133B9F107
:107AE000803409F46FC0813409F476C0823409F41B
:107AF00085C0853409F488C0803531F1823521F1A3
:107B0000813511F1853509F485C0863509F48DC0BC
:107B1000843609F496C0843709F403C1853709F423
:107B200072C1863709F466C0809103018F5F80932C
:107B30000301853079F6E0910401F0910501099582
:107B40000E94763C803351F60E94F33CC3CF0E94E2
:107B5000763C803249F78091C00085FFFCCFF092DF
:107B6000C6008091C00085FFFCCF9092C600809136
:107B7000C00085FFFCCF8092C6008091C00085FFC9
:107B8000FCCF7092C6008091C00085FFFCCF609250
:107B9000C6008091C00085FFFCCF5092C600809146
:107BA000C00085FFFCCF4092C6008091C00085FFD9
:107BB000FCCF3092C6008091C00085FFFCCFB09210
:107BC000C60088CF0E94763C863808F4BDCF0E945C
:107BD000763C0E94F33C7ECF0E94763C803809F4CC
:107BE0009CC0813809F40BC1823809F43CC1883942
:107BF00009F48FC080E00E94C73C6CCF84E10E94F2
:107C0000BD3C0E94F33C66CF85E00E94BD3C0E94D3
:107C1000F33C60CF0E94763C809306010E94763C44
:107C2000809307010E94F33C55CF0E94763C80333D
:107C300009F41DC183E00E94BD3C80E00E94C73C66
:107C400049CF0E94763C809309020E94763C809343
:107C5000080280910C028E7F80930C020E94763C79
:107C6000853409F415C18091080290910902892B8D
:107C700089F000E010E00E94763CF801E85FFE4FDA
:107C800080830F5F1F4F80910802909109020817AF
:107C9000190788F30E94763C803209F045CF809125
:107CA0000C0280FF01C16091060170910701660F0F
:107CB000771F7093070160930601A0910802B091AD
:107CC00009021097C9F0E8E0F1E09B01AD014E0F09
:107CD0005F1FF999FECF32BD21BD819180BDFA9A17
:107CE000F99A2F5F3F4FE417F50799F76A0F7B1F4B
:107CF00070930701609306018091C00085FFFCCF5F
:107D0000F092C6008091C00085FFFCCFB092C60003
:107D1000E1CE83E00E94C73CDDCE82E00E94C73CFA
:107D2000D9CE0E94763C809309020E94763C8093D3
:107D300008028091060190910701880F991F909386
:107D40000701809306010E94763C853409F4A6C0A1
:107D500080910C028E7F80930C020E94763C8032D0
:107D600009F0B8CE8091C00085FFFCCFF092C6002C
:107D7000609108027091090261157105B9F140E046
:107D800050E080910C02A82FA170B82FB27011C0E2
:107D9000BB2309F45CC0E0910601F0910701319624
:107DA000F0930701E09306014F5F5F4F46175707B7
:107DB000E8F4AA2369F3F999FECF209106013091E6
:107DC000070132BD21BDF89A90B58091C00085FFB2
:107DD000FCCF9093C6002F5F3F4F30930701209355
:107DE00006014F5F5F4F4617570718F38091C00099
:107DF00085FDE5CE8091C00085FFF8CFE0CE81E023
:107E00000E94C73C67CE0E94763C803209F08CCE3F
:107E10008091C00085FFFCCFF092C6008091C00029
:107E200085FFFCCFE092C6008091C00085FFFCCFAB
:107E3000D092C6008091C00085FFFCCFC092C600E2
:107E40008091C00085FFFCCFB092C60043CEE09188
:107E50000601F091070194918091C00085FFFCCF4D
:107E60009093C6009CCF80E10E94C73C33CE0E9415
:107E7000763C0E94763C182F0E94763C112309F430
:107E800083C0113009F484C08FE00E94C73C22CE29
:107E900080910C02816080930C02E5CE80910C02EF
:107EA000816080930C0259CF809107018823880F4D
:107EB000880B8A2180930B02809106019091070123
:107EC000880F991F90930701809306018091080203
:107ED00080FF09C080910802909109020196909359
:107EE000090280930802F894F999FECF1127E091D6
:107EF0000601F0910701C8E0D1E08091080290915D
:107F00000902103091F40091570001700130D9F34B
:107F100003E000935700E89500915700017001308D
:107F2000D9F301E100935700E89509901990009169
:107F3000570001700130D9F301E000935700E89534
:107F40001395103498F011270091570001700130FB
:107F5000D9F305E000935700E895009157000170B0
:107F60000130D9F301E100935700E895329602976A
:107F700009F0C7CF103011F00296E5CF112480919F
:107F8000C00085FFB9CEBCCE8EE10E94C73CA2CD19
:0E7F900085E90E94C73C9ECDF894FFCF80008B
:00000001FF
