:020000040000FA
:1000000046C04AC422C468C067C066C065C064C038
:1000100063C0D1C361C08CC466C45EC05DC05CC037
:100020005BC05AC059C000000000360033003000E9
:1000300000000000370034003100000000003800EC
:100040003500320004040404040404040202020221
:100050000202030303030303020203010204081064
:1000600020408001020408102001020408102040F2
:1000700080400000000000000000000405070000B0
:1000800000000000000000000000CA044D07112419
:100090001FBECFE5D4E0DEBFCDBF21E0A8E9B0E0D0
:1000A00001C01D92A335B207E1F710E0A0E6B0E071
:1000B000E0E7F4E102C005900D92A839B107D9F745
:1000C00010E0C6E4D0E003C02197FE01D4D7C534C8
:1000D000D107D1F79DD4C0C993CF853041F0873087
:1000E00049F0843051F48FB58F778FBD08958FB567
:1000F0008F7DFBCF85B58F7D85BD08951F93CF93F1
:10010000DF93282F30E0F901EE58FF4F8491F90179
:10011000E55AFF4FD491F901EC5BFF4FC491CC231A
:10012000A1F0162F8111D9DFEC2FF0E0EE0FFF1FA9
:10013000E65CFF4FA591B4918FB7F894EC91111143
:1001400008C0D095DE23DC938FBFDF91CF911F9144
:100150000895DE2BF8CFCF93DF9390E0FC01E55AB2
:10016000FF4F24918C5B9F4FFC0184918823D1F039
:1001700090E0880F991FFC01E05DFF4FA591B491BD
:10018000FC01E65CFF4FC591D49161110EC09FB791
:10019000F8948C91E22FE0958E238C932881E223B2
:1001A000E8839FBFDF91CF9108958FB7F894EC91CA
:1001B000E22BEC938FBFF6CF3FB7F89480919E006F
:1001C00090919F00A091A000B091A10022B708B625
:1001D00000FE05C02F3F19F00196A11DB11D3FBFC4
:1001E000BA2FA92F982F8827BC01CD01620F711D4E
:1001F000811D911D43E0660F771F881F991F4A9547
:10020000D1F708958F929F92AF92BF92CF92DF92D3
:10021000EF92FF924B015C01CFDF6B017C01CCDFE1
:100220006C197D098E099F09683E7340810591050F
:10023000B0F321E0821A9108A108B10888EEC80E37
:1002400083E0D81EE11CF11C81149104A104B104C7
:1002500031F7FF90EF90DF90CF90BF90AF909F90DD
:100260008F90089508950895AF92BF92CF92DF9234
:10027000EF92FF920F931F93CF93DF936C017B015B
:100280008B01040F151FEB015E01AE18BF08C017EC
:10029000D10759F06991D601ED91FC910190F0815F
:1002A000E02DC6010995892B79F7C501DF91CF9122
:1002B0001F910F91FF90EF90DF90CF90BF90AF9084
:1002C0000895FC01538D448D252F30E0842F90E05C
:1002D000821B930B541710F0CF9608950197089541
:1002E000FC01918D828D981761F0A28DAE0FBF2F0A
:1002F000B11D5D968C91928D9F5F9F73928F90E060
:1003000008958FEF9FEF08952FB7F8948091A20082
:100310009091A300A091A400B091A5002FBF80935D
:10032000AE009093AF00A093B000B093B10086EA06
:1003300090E0D6DF97FF26C02FB7F8948091A200F7
:100340009091A300A091A400B091A5002FBF40916F
:10035000AE005091AF006091B0007091B100841B6D
:10036000950BA60BB70B4091AA005091AB00609182
:10037000AC007091AD0084179507A607B707B8F2D7
:100380008FEF9FEF0895FC01918D828D981731F0CA
:10039000828DE80FF11D858D90E008958FEF9FEF1E
:1003A0000895FC01918D228D892F90E0805C9F4FF4
:1003B000821B91098F739927089586EA90E0F1DFF7
:1003C00021E0892B09F420E0822F089580E090E05D
:1003D000892B19F0F2DF811113CE0895FC01A48D51
:1003E000A80FB92FB11DA35ABF4F2C91848D90E057
:1003F00001968F739927848FA689B7892C93A0893A
:10040000B1898C9182748C93938D848D981306C0DE
:100410000288F389E02D80818F7D80830895EF929B
:10042000FF920F931F93CF93DF93EC0181E0888FAE
:100430009B8D8C8D981319C0E889F989808185FF7F
:1004400014C09FB7F894EE89FF896083E889F98921
:100450008081827480839FBF81E090E0DF91CF91A3
:100460001F910F91FF90EF900895F62E0B8D10E0E5
:100470000F5F1F4F0F731127E02E8C8D8E110BC055
:100480000FB607FCFACFE889F989808185FFF5CF9F
:10049000CE01A4DFF2CFEB8DEC0FFD2FF11DE35A5F
:1004A000FF4FF0829FB7F8940B8FEA89FB89808118
:1004B0008062D0CFCF93DF93EC01888D8823B1F099
:1004C000AA89BB89E889F9898C9185FD03C080815F
:1004D00086FD0CC00FB607FCF7CF8C9185FFF2CFDD
:1004E000808185FFEDCFCE0179DFEACFDF91CF911B
:1004F0000895CF93DF93E6E7F0E08491EFE5F0E035
:10050000D491E8E4F0E0C491CC2349F18111E5DD18
:10051000EC2FF0E0EE0FFF1FEA5DFF4FA591B491C5
:10052000EC91ED23E1F0809198008823A9F080916F
:10053000990090919A00A0919B00B0919C00019627
:10054000A11DB11D8093990090939A00A0939B00E8
:10055000B0939C0010929800DF91CF91089581E0B4
:1005600080939800F9CFCF93DF93D82FC8E06D2FF9
:10057000617082E0C3DDD69561E083E0BFDD60E0BD
:1005800083E0BCDDC15099F7DF91CF910895FC0164
:1005900001900020E9F73197AF01481B590BBC01CE
:1005A00086EA90E061CE0F931F93CF93DF938C0187
:1005B000EB01FC01808191810097D1F06881798104
:1005C00061157105A1F0428153812C813D81421753
:1005D000530768F03AD78C819D81F8019583848315
:1005E0001D821C82DF91CF911F910F910895E5D557
:1005F00088819981F801918380838A819B8193838B
:1006000082838C819D8195838483198218821B82C9
:100610001A82E6CFFC0180819181009709F0CDC557
:1006200008950F931F93CF93DF93EC0188819981F5
:10063000009759F02A813B812617370730F081E077
:10064000DF91CF911F910F9108958B016F5F7F4FC5
:100650003DD6009759F0998388831B830A832C81A8
:100660003D81232B61F7FC011082E9CF80E0E8CFC8
:10067000EF92FF920F931F93CF93DF93EC017B01D7
:100680008A01BA01CEDF28813981811113C0211579
:10069000310511F0C90191D5198218821D821C8281
:1006A0001B821A82CE01DF91CF911F910F91FF9093
:1006B000EF9008951D830C83B701C901C6D6F2CF10
:1006C00050E040E066E970E0D3CFAF92BF92CF92A6
:1006D000DF92EF92FF920F931F93CF93DF93EC0182
:1006E0006B015A0179012417350720F48B2D59012C
:1006F000E42EF82E198218821B821A821D821C8217
:10070000CE01DEDFD60114960D911C91A016B10624
:1007100020F5E016F10608F48701D601ED91FC9171
:100720001197E00FF11FF08010826D917C916A0D9E
:100730007B1D61157105E9F0FB0101900020E9F7CF
:100740003197AF01461B570BCE0192DFF601808136
:100750009181080F191FD801FC92CE01DF91CF9132
:100760001F910F91FF90EF90DF90CF90BF90AF90CF
:10077000089588819981009709F01FD51982188200
:100780001D821C821B821A82E1CFCF93DF93D0E0BF
:10079000C0E060E0CE0109D41092990010929A0056
:1007A00010929B0010929C002196C430D10589F7CD
:1007B000DF91CF9108951F920F920FB60F921124DF
:1007C0002F933F938F939F93AF93BF938091A200FA
:1007D0009091A300A091A400B091A50030919D003C
:1007E00026E0230F2D3768F129E8230F0396A11D7A
:1007F000B11D20939D008093A2009093A300A0932D
:10080000A400B093A50080919E0090919F00A091BC
:10081000A000B091A1000196A11DB11D80939E0082
:1008200090939F00A093A000B093A100BF91AF91BF
:100830009F918F913F912F910F900FBE0F901F901E
:1008400018950296A11DB11DD4CF1F920F920FB61D
:100850000F9211242F933F934F935F936F937F9346
:100860008F939F93AF93BF93EF93FF93E0916200B9
:10087000F09163000995FF91EF91BF91AF919F9126
:100880008F917F916F915F914F913F912F910F9039
:100890000FBE0F901F9018951F920F920FB60F92D8
:1008A00011242F933F934F935F936F937F938F9375
:1008B0009F93AF93BF93EF93FF93E0916000F0910C
:1008C00061000995FF91EF91BF91AF919F918F9139
:1008D0007F916F915F914F913F912F910F900FBE3C
:1008E0000F901F9018951F920F920FB60F92112420
:1008F0002F933F934F935F936F937F938F939F9328
:10090000AF93BF93EF93FF9386EA90E067DDFF918B
:10091000EF91BF91AF919F918F917F916F915F9177
:100920004F913F912F910F900FBE0F901F901895F0
:100930001F920F920FB60F9211242F938F939F93B4
:10094000EF93FF93E091B600F091B7008081E091C2
:10095000BC00F091BD0082FD1BC090818091BF0062
:100960008F5F8F732091C000821741F0E091BF002C
:10097000F0E0EA55FF4F958F8093BF00FF91EF9114
:100980009F918F912F910F900FBE0F901F901895F0
:100990008081F4CFE6EAF0E01382128288EE93E0E1
:1009A000A0E0B0E084839583A683B7838DE790E0D1
:1009B0009183808380E490E09587848729E230E00A
:1009C000378726872BE230E0318B208B2AE230E01C
:1009D000338B228B958B848B8CE290E0978B868B6C
:1009E000118E128E138E148EE9E4F1E011821082C2
:1009F0001382128215821482CF0162DEE3E4F1E0F9
:100A0000118210821382128215821482CF0158CE75
:100A1000CF93DF93CDB7DEB7A8970FB6F894DEBFBC
:100A20000FBECDBF789483B7836083BF89B78160E1
:100A300089BF92E09EBD8EB581608EBD8FB581600D
:100A40008FBD85B5846085BD85B5806485BD86E82C
:100A500086B91AB8E091B600F091B7009083E091A2
:100A6000B200F091B3001082E091B400F091B500B3
:100A700097E690831092BE00E091BA00F091BB001F
:100A80008083E091B800F091B9008081886980830B
:100A9000E091B800F091B90080818F7D808361E0A2
:100AA00082E059DB61E083E056DB61E085E053DB07
:100AB00061E086E050DB61E087E04DDB61E088E0EB
:100AC0004ADB61E089E047DB61E08AE044DB60E02B
:100AD00084E041DB60E08BE03EDB60E085E00EDB44
:100AE00060E086E00BDB60E087E008DB60E088E048
:100AF00005DB60E089E002DB60E08AE0FFDA8FE39B
:100B000032DD62E370E080E090E07CDB90E080E04A
:100B100044D2898381E090E040D28A8382E090E0F1
:100B20003CD28B8383E090E038D28C8389819A8198
:100B3000AB81BC81181619061A061B0644F4809373
:100B4000990090939A00A0939B00B0939C009AE028
:100B5000492E512C612C712CCE0101967C0180E034
:100B6000882E80E0982E86EA90E01BDC892B09F421
:100B700090C01A8219821C821B821E821D82C701AC
:100B80009FDDC2DB97FD1BC08A309105C1F08BA3AE
:100B90001CA20D811E810F5F1F4FB801C70141DDEF
:100BA000882379F329813A818D819E81BE016D5D13
:100BB0007F4F820F931F49D41E830D83E2CFB7016D
:100BC00083E491E0F0DCC70125DD23E030E050E074
:100BD00040E063E471E0C70178DDC7011BDD2091CF
:100BE00047013091480150E040E063E471E0C70103
:100BF0006CDD89819A81009709F4A5C054D1709366
:100C0000650060936400C70105DD61E070E080E08D
:100C100090E0F8DA8BE890E0BADCA0906400B09045
:100C200065000B2C000CCC08DD08D7FE90C06DE2EF
:100C300086EA90E0F4DB22273327A9012A193B0931
:100C40004C095D0919A28E010F5D1F4FCA01B90140
:100C5000A3019201EED1605DF80162938F0121152D
:100C600031054105510591F70115110511F0C80134
:100C70008EDC84E990E08BDCE0916400F09165000B
:100C8000E459FF4F80816FDC64EF71E080E090E019
:100C9000B9DA6091990070919A0080919B009091CF
:100CA0009C001CA21BA21EA21DA218A61FA22AE025
:100CB000A7011FD1F70101900020E9F73197AF019B
:100CC0004E195F09B701CE018396D2DCBE016D5D7E
:100CD0007F4F89E491E067DCCE0183969BDCC09076
:100CE0004D01D0904E01F1E0CF1AD10810E000E0A4
:100CF0000C151D050CF0C7C058018FEFA81AB80AD3
:100D00009501A80169E471E0C701DFDC89819A815E
:100D1000312C009711F0C7D0362EC7017BDCE32DB4
:100D2000F0E0E459FF4F80811EDC0330110509F427
:100D30006BC014F501301105E9F10230110509F419
:100D40004EC08501D5CF60E070E0CB0158CFA60141
:100D5000950119A28E010F5D1F4FCA01B901A301B0
:100D6000920167D1605DF80162938F012115310511
:100D70004105510591F778CF0530110509F46EC092
:100D80000CF457C006301105E1F661E08AE0B6D9EF
:100D900060E086E0B3D960E087E0B0D960E088E049
:100DA000ADD960E089E0AAD960E085E0A7D907E085
:100DB00010E09ECF61E085E0A1D960E086E09ED999
:100DC00060E087E09BD960E088E098D960E089E046
:100DD00095D960E08AE092D902E010E089CF61E025
:100DE00086E08CD960E085E089D960E087E086D92B
:100DF00060E088E083D960E089E080D960E08AE043
:100E00007DD903E010E074CF61E087E077D960E03E
:100E100085E074D960E086E071D960E088E06ED941
:100E200060E089E06BD960E08AE068D904E010E016
:100E30005FCF61E088E062D960E086E05FD960E082
:100E400087E05CD960E085E059D960E089E056D957
:100E500060E08AE053D905E010E04ACF61E089E024
:100E60004DD960E086E04AD960E087E047D960E08C
:100E700088E044D960E085E041D960E08AE03ED96D
:100E800006E010E035CF8114910409F46CCE95DAB8
:100E9000882309F461CEB4D85FCE83E491E0BADB55
:100EA00089E491E0B7CB1F93FC0199278827BC0107
:100EB000E89411911032E9F3193010F01E30C8F3A4
:100EC0001B3249F01D3241F4689405C020D0610FF7
:100ED000711D811D911D119110531A30B8F33EF40C
:100EE00090958095709561957F4F8F4F9F4F1F9183
:100EF0000895BB272A3051F4992342F4BDE290951E
:100F00008095709561957F4F8F4F9F4F16C0592FD9
:100F1000482F372F262F660F771F881F991F660FC0
:100F2000771F881F991F620F731F841F951F660FFD
:100F3000771F881F991F0895BB27FA01A62F6217F4
:100F4000710581059105330B30FB66F0AA27660F0A
:100F5000771F881F991FAA1FA21710F0A21B639565
:100F60003850A9F7A05DAA3308F0A95DA19336F720
:100F7000B111B1931082CA0100C0DC01FC01672FDE
:100F800071917723E1F7329704C07C916D93708360
:100F90006291AE17BF07C8F30895E199FECF9FBBDA
:100FA0008EBBE09A99278DB30895262FE199FECF45
:100FB0009FBB8EBB2DBB0FB6F894E29AE19A0FBE91
:100FC000019608952F923F924F925F926F927F9277
:100FD0008F929F92AF92BF92CF92DF92EF92FF9249
:100FE0000F931F93CF93DF93CDB7DEB7CA1BDB0BF5
:100FF0000FB6F894DEBF0FBECDBF09942A8839889A
:1010000048885F846E847D848C849B84AA84B984A0
:10101000C884DF80EE80FD800C811B81AA81B981AC
:10102000CE0FD11D0FB6F894DEBF0FBECDBFED01C0
:101030000895A1E21A2EAA1BBB1BFD010DC0AA1F19
:10104000BB1FEE1FFF1FA217B307E407F50720F031
:10105000A21BB30BE40BF50B661F771F881F991FAC
:101060001A9469F760957095809590959B01AC01F5
:10107000BD01CF010895EE0FFF1F0590F491E02D03
:1010800009940F931F93CF93DF938230910510F44F
:1010900082E090E0E0915101F091520130E020E0D7
:1010A000B0E0A0E0309799F42115310509F44AC069
:1010B000281B390B24303105D8F58A819B816115B5
:1010C000710589F1FB0193838283FE0111C0408188
:1010D00051810281138148175907E0F048175907D9
:1010E00099F4109761F012960C93129713961C9333
:1010F0003296CF01DF91CF911F910F910895009308
:10110000510110935201F4CF2115310551F04217CE
:10111000530738F0A901DB019A01BD01DF01F80195
:10112000C1CFEF01F9CF9093520180935101CDCF00
:10113000FE01E20FF31F819391932250310939830D
:101140002883D7CF20914F0130915001232B41F4B8
:1011500020916800309169003093500120934F0135
:1011600020916600309167002115310541F42DB7BB
:101170003EB740916A0050916B00241B350BE09103
:101180004F01F0915001E217F307A0F42E1B3F0B23
:101190002817390778F0AC014E5F5F4F24173507E9
:1011A00048F04E0F5F1F5093500140934F018193C1
:1011B00091939FCFF0E0E0E09CCFCF93DF93009737
:1011C000E9F0FC01329713821282A0915101B09193
:1011D0005201ED0130E020E01097A1F4208131812F
:1011E000820F931F20914F0130915001281739072A
:1011F00009F061C0F0935001E0934F01DF91CF916E
:101200000895EA01CE17DF07E8F54A815B819E0168
:1012100041155105B1F7E901FB83EA8349915991E1
:10122000C40FD51FEC17FD0761F4808191810296F0
:10123000840F951FE90199838883828193819B8321
:101240008A83F0E0E0E012968D919C9113970097CD
:10125000B9F52D913C911197CD010296820F931F04
:1012600020914F01309150012817390739F63097F6
:1012700051F51092520110925101B0935001A09378
:101280004F01BCCFD383C28340815181840F951F0E
:10129000C817D90761F44E5F5F4F88819981480F65
:1012A000591F518340838A819B81938382832115B7
:1012B000310509F0B0CFF0935201E09351019ECF78
:1012C000FD01DC01C0CF13821282D7CFB0E0A0E0D5
:1012D000EBE6F9E079CE8C01009741F4CB01D1DE49
:1012E0008C01C801CDB7DEB7E0E18ACEFC01E60F84
:1012F000F71F9C0122503109E217F30708F499C047
:10130000D901CD91DC911197C617D70790F0C53060
:10131000D10538F3CE0104978617970710F3C61B43
:10132000D70B2297C193D1936D937C93CF0145DF67
:10133000D8CF5B01AC1ABD0A4C018C0E9D1EA0914A
:101340005101B0915201512C412CF12CE12C1097FC
:1013500031F580914F01909150018815990509F060
:101360005CC04616570608F058C080916600909100
:101370006700009741F48DB79EB740916A00509185
:101380006B00841B950BE817F90708F052C0F09327
:101390005001E0934F01F90171836083A2CF8D91D9
:1013A0009C91119712966C90129713967C901397BC
:1013B000A815B90559F56C0142E0C40ED11CCA1438
:1013C000DB0420F1AC014A195B09DA01129615978A
:1013D00080F06282738251834083D9016D937C9344
:1013E000E114F10471F0D7011396FC93EE93129778
:1013F00078CF22968C0F9D1FF90191838083F30192
:10140000EFCFF0935201E09351016BCF481659068C
:1014100008F42C017D01D3019ACFCB0132DE7C018F
:10142000009739F0AE01B80107D0C801C6DE8701C8
:1014300058CF10E000E055CFFB01DC0102C0019065
:101440000D9241505040D8F70895FB01DC01019006
:101450000D920020E1F7089510E0C6E4D0E003C04B
:10146000FE0109DE2196C734D107D1F7F894FFCFEA
:101470003301000024000000530180003F30DB4FA7
:10148000666D7D277F6F767330000000000F023499
:101490000161015A02D1017001C301646174613AB2
:0814A000202020000D0A0000CD
:101E800011248FE594E09EBF8DBF24B614BE80E080
:101E900071D021FEC7C08EE06DD0AFE7BFEF809953
:101EA000FECF9096809BFDCFB9B91197F1F782E0F4
:101EB0008BB988E18AB94FD0C82F823569F45ED0DA
:101EC000E0E4FEE1A89583E08BD089D0E054F109ED
:101ED000C8F78DE23CD0EFCF8D7FD9F446D0D82F14
:101EE000A0E0B1E038D08D93DA13FCCFA0E0B1E0F0
:101EF00045D0C1110CC0FFBBEEBB8D918DBBE29AEA
:101F0000E19A3196E199FECFD150A9F7E2CF40D0C6
:101F1000E0CFC33041F429D0C82F30D0859117D0FD
:101F2000C150E1F7D6CFC13061F41FD0C82F26D001
:101F3000FFBBEEBBE09A8DB30AD03196C150C1F71A
:101F4000C8CFC13511F488E015D018D0C2CF5D9B41
:101F5000FECF8CB90895C59ABD9A5F9BFECF5C9960
:101F600010C0A8958CB1C5980895F5DFE82FF3DF70
:101F7000F82FF1CF98E191BD81BD0895ECDF80325B
:101F800019F088E0F7DFFFCF80EAE1CFFB01DC0149
:101F9000E07C70E47A0F9F01E0388EE1F80728F5C5
:101FA000309629F48FE38D938FEC8C93119790E00A
:101FB00045915D9145139160A713FACFF901A054A3
:101FC000B10990FF12C083E00BD081E00D901D900D
:101FD00007D03296A713FACFF90185E001D081E14D
:0E1FE00087BFE89517B610FCFDCF11240895B9
:061FFA000612C7CFE7400C
:00000001FF
