:020000040000FA
:1000000046C0EBC2C3C268C067C066C065C064C0FA
:1000100063C072C261C060C05FC05EC05DC05CC0D2
:100020005BC05AC059C000000000370034003100E6
:1000300000000000380035003200000000003600EB
:100040003300300004040404040404040202020225
:100050000202030303030303020203010204081064
:1000600020408001020408102001020408102040F2
:1000700080400000000000000000000405070000B0
:1000800000000000000000000000190527051124F1
:100090001FBECFE5D4E0DEBFCDBF20E0ACE7B0E0CF
:1000A00001C01D92A539B207E1F710E0A0E6B0E06B
:1000B000EEEBFFE002C005900D92AC37B107D9F727
:1000C00010E0C6E4D0E003C02197FE017BD5C53423
:1000D000D107D1F7A9D267C793CF853041F08730D8
:1000E00049F0843051F48FB58F778FBD08958FB567
:1000F0008F7DFBCF85B58F7D85BD0895CF93DF9331
:10010000282F30E0F901EE58FF4F8491F901E55AAC
:10011000FF4FD491F901EC5BFF4FC491CC2399F0D0
:100120008111DBDFEC2FF0E0EE0FFF1FE65CFF4FED
:10013000A591B491EC91ED2381E090E009F480E089
:10014000DF91CF91089580E090E0FACF1F93CF9395
:10015000DF93282F30E0F901EE58FF4F8491F90129
:10016000E55AFF4FD491F901EC5BFF4FC491CC23CA
:10017000A1F0162F8111B1DFEC2FF0E0EE0FFF1F81
:10018000E05DFF4FA591B4918FB7F894EC911111F8
:1001900008C0D095DE23DC938FBFDF91CF911F91F4
:1001A0000895DE2BF8CFCF93DF9390E0FC01E55A62
:1001B000FF4F24918C5B9F4FFC0184918823D1F0E9
:1001C00090E0880F991FFC01EA5DFF4FA591B49163
:1001D000FC01E05DFF4FC591D49161110EC09FB746
:1001E000F8948C91E22FE0958E238C932881E22362
:1001F000E8839FBFDF91CF9108958FB7F894EC917A
:10020000E22BEC938FBFF6CF3FB7F89480918D002F
:1002100090918E00A0918F00B091900022B708B607
:1002200000FE05C02F3F19F00196A11DB11D3FBF73
:10023000BA2FA92F982F8827BC01CD01620F711DFD
:10024000811D911D43E0660F771F881F991F4A95F6
:10025000D1F708958F929F92AF92BF92CF92DF9283
:10026000EF92FF926B017C01CFDF4B015C01C11467
:10027000D104E104F104B1F0C7DF681979098A09F2
:100280009B09683E73408105910588F321E0C21AFD
:10029000D108E108F10888EE880E83E0981EA11CC1
:1002A000B11CE5CFFF90EF90DF90CF90BF90AF9063
:1002B0009F908F9008950895109284001092850069
:1002C00010928600109287000895089583E016DF4B
:1002D0000197D1F480917C008823C9F0809184003B
:1002E00090918500A0918600B09187000196A11D94
:1002F000B11D8093840090938500A0938600B093F5
:10030000870010927C00089581E080937C0008951E
:10031000CF93DF93D82FC8E06D2F61708AE016DF8E
:10032000D69561E08BE012DF60E08BE00FDFC1501B
:1003300099F7DF91CF9108951F93CF93DF93EC014D
:10034000162F80917D00811109C060916400709129
:10035000650080916600909167007CDFE12FF0E0FE
:10036000E259FF4F8081D4DFC330D10509F44BC07F
:100370004CF4C130D10501F1229799F1DF91CF9171
:100380001F910895C530D10509F461C00CF44DC02A
:100390002697A1F761E085E0D9DE61E086E0D6DE50
:1003A00061E087E0D3DE61E088E0D0DE61E084E0F8
:1003B000CDDE60E089E011C061E085E0C7DE61E08C
:1003C00086E0C4DE61E087E0C1DE61E088E0BEDE99
:1003D00061E089E0BBDE60E084E0DF91CF911F91B6
:1003E000B5CE61E084E0B2DE61E086E0AFDE61E0E0
:1003F00087E0ACDE61E088E0A9DE61E089E0A6DEAE
:1004000060E085E0EACF61E084E0A0DE61E085E0C5
:100410009DDE61E087E09ADE61E088E097DE61E0E2
:1004200089E094DE60E086E0D8CF61E085E08EDE92
:1004300061E086E08BDE61E084E088DE61E088E0F8
:1004400085DE61E089E082DE60E087E0C6CF61E0C2
:1004500085E07CDE61E086E079DE61E087E076DEE3
:1004600061E084E073DE61E089E070DE60E088E0F6
:10047000B4CFFC0180819181009709F045C40895B3
:10048000EF92FF920F931F93CF93DF93EC017B01C9
:100490008A0188819981009729F02A813B8124175C
:1004A000350780F4B8016F5F7F4FB7D4009789F0AC
:1004B000998388831B830A832C813D81232B11F42C
:1004C000FC0110821D830C83B7018881998164D55A
:1004D0000BC088819981009709F016D4198218827F
:1004E0001D821C821B821A82CE01DF91CF911F9147
:1004F0000F91FF90EF9008951F920F920FB60F92F9
:1005000011242F933F938F939F93AF93BF93809129
:10051000890090918A00A0918B00B0918C0030915D
:10052000880026E0230F2D3768F129E8230F039672
:10053000A11DB11D209388008093890090938A00AB
:10054000A0938B00B0938C0080918D0090918E00D1
:10055000A0918F00B09190000196A11DB11D8093D4
:100560008D0090938E00A0938F00B0939000BF9168
:10057000AF919F918F913F912F910F900FBE0F9050
:100580001F9018950296A11DB11DD4CF1F920F92F6
:100590000FB60F9211242F933F934F935F936F9356
:1005A0007F938F939F93AF93BF93EF93FF93E091CC
:1005B0006200F09163000995FF91EF91BF91AF91B7
:1005C0009F918F917F916F915F914F913F912F916B
:1005D0000F900FBE0F901F9018951F920F920FB69D
:1005E0000F9211242F933F934F935F936F937F93B9
:1005F0008F939F93AF93BF93EF93FF93E09160002E
:10060000F09161000995FF91EF91BF91AF919F919A
:100610008F917F916F915F914F913F912F910F90AB
:100620000FBE0F901F901895CF93DF93CDB7DEB715
:10063000A7970FB6F894DEBF0FBECDBF789483B7EF
:10064000836083BF89B7816089BF82E08EBD8EB52C
:1006500081608EBD8FB581608FBD85B5846085BD9D
:1006600085B5806485BD86E886B91AB861E08AE000
:100670009ADD61E08BE097DD61E084E094DD61E08C
:1006800085E091DD61E086E08EDD61E087E08BDD75
:1006900061E088E088DD61E089E085DD60E083E09D
:1006A00082DD60E082E07FDD86E691E0909363008A
:1006B0008093620085B7837F846085BF8BB7806835
:1006C0008BBF8CE591E0909361008093600085B7CB
:1006D0008C7F816085BF8BB780648BBF61E086E0D3
:1006E00035DD61E084E032DD61E085E02FDD61E051
:1006F00087E02CDD61E088E029DD61E089E026DD2E
:1007000004E610E06AE082E090E016DE6BE083E051
:1007100090E012DE6CE084E090E00EDE0150110902
:1007200089F78FE3F5DD60E084E010DD61E085E0CE
:100730000DDD61E086E00ADD61E087E007DD61E074
:1007400088E004DD61E089E001DD8AE090E0EED13F
:1007500089838BE090E0EAD18A838CE090E0E6D157
:100760008B838DE090E0E2D18C8361E070E080E0EB
:1007700090E070DD89819A81AB81BC8118161906E1
:100780001A061B0644F48093840090938500A0937E
:100790008600B09387008E010F5F1F4F37E0432E16
:1007A000512C612C712C8091840090918500A09136
:1007B0008600B091870084369105A105B10508F443
:1007C000AFC010927D00409264005092650060922C
:1007D000660070926700609184007091850080913E
:1007E0008600909187001BA21AA21DA21CA21FA224
:1007F0001EA22AE0A80169D1F80101900020E9F7C2
:100800003197AF01401B510BB801CE01829638DE03
:1008100080917E0090917F00009709F4BCC06AA18E
:100820007BA16115710509F4B5C04091800050911C
:1008300081002EA13FA14217530708F4ABC0ACD3EF
:100840008EA19FA190938300809382001FA21EA27D
:10085000CE0182960EDE209082003090830091E0DF
:10086000291A3108F12CE12C2E143F040CF4B6C0E7
:10087000AFEFEA1AFA0A47015701B1E0AB1AB10823
:10088000EA14FB0428F488248A94982CB12CA12C17
:100890001A8219821C821B821E821D8250E040E057
:1008A0006BE770E0C801ECDDC0908200D09083005F
:1008B000AC14BD0440F58C149D0408F46401E0916F
:1008C0007E00F0917F00EC0DFD1D90801082609104
:1008D0007E0070917F006A0D7B1D6115710509F422
:1008E00071C0FB0101900020E9F73197AF01461B71
:1008F000570BC801C5DD80917E0090917F00C80E26
:10090000D91EF601908289819A81D12C009711F02D
:10091000A1D0D62EC801ADDD6D2DC7010DDDA4CF50
:100920008091840090918500A0918600B09187000D
:10093000883E9340A105B10520F081E080937D00C1
:100940004ACF8091840090918500A0918600B0915B
:10095000870080319742A105B10578F78091840026
:1009600090918500A0918600B09187000A97A1051B
:10097000B10508F030CF10927D008BE090E0A0E050
:10098000B0E08093640090936500A0936600B093FC
:10099000670021CFB9D18AA19BA190937F0080935A
:1009A0007E008CA19DA190938100809380008EA1F8
:1009B0009FA190938300809382001BA21AA21DA284
:1009C0001CA244CF89819A81009709F09DD11A8297
:1009D00019821E821D821C821B828DCF84E8E82E24
:1009E00080E0F82E9AE0C92ED12CD701BD907D0170
:1009F000C6019CD0B81619F06B2DC6019FD0BFEF71
:100A0000CB1ADB0AEEE0CE16D10479F782E076DB72
:100A1000019741F410928400109285001092860094
:100A20001092870080E090E0892B09F4BCCEE8DAD0
:100A3000BACEEEE7F0E011821082138212821582A4
:100A4000148250E040E06BE770E0CF0119CD8EE7F3
:100A500090E00FCD1F93FC0199278827BC01E894F3
:100A600011911032E9F3193010F01E30C8F31B3227
:100A700049F01D3241F4689405C012D0610F711D18
:100A8000811D911D119110531A30B8F33EF49095C9
:100A90008095709561957F4F8F4F9F4F1F9108955F
:100AA000592F482F372F262F660F771F881F991F22
:100AB000660F771F881F991F620F731F841F951F72
:100AC000660F771F881F991F0895BB27FA01A62F6D
:100AD0006217710581059105330B30FB66F0AA277B
:100AE000660F771F881F991FAA1FA21710F0A21B5D
:100AF00063953850A9F7A05DAA3308F0A95DA193CA
:100B000036F7B111B1931082CA0100C0DC01FC01BB
:100B1000672F71917723E1F7329704C07C916D9331
:100B200070836291AE17BF07C8F30895E199FECFB5
:100B30009FBB8EBBE09A99278DB30895262FE1992C
:100B4000FECF9FBB8EBB2DBB0FB6F894E29AE19A05
:100B50000FBE019608952F923F924F925F926F922F
:100B60007F928F929F92AF92BF92CF92DF92EF923D
:100B7000FF920F931F93CF93DF93CDB7DEB7CA1BBE
:100B8000DB0B0FB6F894DEBF0FBECDBF09942A88E9
:100B9000398848885F846E847D848C849B84AA8491
:100BA000B984C884DF80EE80FD800C811B81AA811E
:100BB000B981CE0FD11D0FB6F894DEBF0FBECDBFE9
:100BC000ED010895EE0FFF1F0590F491E02D0994BB
:100BD0000F931F93CF93DF938230910510F482E03F
:100BE00090E0E0919300F091940030E020E0B0E0DC
:100BF000A0E0309799F42115310509F44AC0281B6B
:100C0000390B24303105D8F58A819B816115710536
:100C100089F1FB0193838283FE0111C040815181E0
:100C20000281138148175907E0F04817590799F4D2
:100C3000109761F012960C93129713961C933296AC
:100C4000CF01DF91CF911F910F91089500939300F1
:100C500010939400F4CF2115310551F0421753073A
:100C600038F0A901DB019A01BD01DF01F801C1CF14
:100C7000EF01F9CF9093940080939300CDCFFE01C4
:100C8000E20FF31F81939193225031093983288316
:100C9000D7CF2091910030919200232B41F42091E5
:100CA0006A0030916B003093920020939100209164
:100CB0006800309169002115310541F42DB73EB728
:100CC00040916C0050916D00241B350BE091910018
:100CD000F0919200E217F307A0F42E1B3F0B2817A8
:100CE000390778F0AC014E5F5F4F2417350748F0A5
:100CF0004E0F5F1F50939200409391008193919308
:100D00009FCFF0E0E0E09CCFCF93DF930097E9F036
:100D1000FC01329713821282A0919300B09194004B
:100D2000ED0130E020E01097A1F420813181820FA5
:100D3000931F20919100309192002817390709F0F4
:100D400061C0F0939200E0939100DF91CF910895FC
:100D5000EA01CE17DF07E8F54A815B819E01411564
:100D60005105B1F7E901FB83EA8349915991C40F19
:100D7000D51FEC17FD0761F4808191810296840FE5
:100D8000951FE90199838883828193819B838A835C
:100D9000F0E0E0E012968D919C9113970097B9F5E1
:100DA0002D913C911197CD010296820F931F2091B6
:100DB0009100309192002817390739F6309751F594
:100DC0001092940010929300B0939200A09391001F
:100DD000BCCFD383C28340815181840F951FC81734
:100DE000D90761F44E5F5F4F88819981480F591F81
:100DF000518340838A819B819383828321153105AE
:100E000009F0B0CFF0939400E09393009ECFFD01E2
:100E1000DC01C0CF13821282D7CFB0E0A0E0E2E1C4
:100E2000F7E09BCE8C01009741F4CB01D1DE8C0121
:100E3000C801CDB7DEB7E0E1ACCEFC01E60FF71F8D
:100E40009C0122503109E217F30708F499C0D90137
:100E5000CD91DC911197C617D70790F0C530D10519
:100E600038F3CE0104978617970710F3C61BD70BEC
:100E70002297C193D1936D937C93CF0145DFD8CF57
:100E80005B01AC1ABD0A4C018C0E9D1EA091930013
:100E9000B0919400512C412CF12CE12C109731F59C
:100EA00080919100909192008815990509F05CC09D
:100EB0004616570608F058C0809168009091690066
:100EC000009741F48DB79EB740916C0050916D0032
:100ED000841B950BE817F90708F052C0F0939200B5
:100EE000E0939100F90171836083A2CF8D919C9171
:100EF000119712966C90129713967C901397A815E1
:100F0000B90559F56C0142E0C40ED11CCA14DB04CA
:100F100020F1AC014A195B09DA011296159780F0AD
:100F20006282738251834083D9016D937C93E11473
:100F3000F10471F0D7011396FC93EE93129778CFDA
:100F400022968C0F9D1FF90191838083F301EFCFCF
:100F5000F0939400E09393006BCF4816590608F481
:100F60002C017D01D3019ACFCB0132DE7C010097A9
:100F700039F0AE01B80107D0C801C6DE870158CFED
:100F800010E000E055CFFB01DC0102C001900D92A2
:100F900041505040D8F70895FB01DC0101900D92BB
:100FA0000020E1F7089510E0C6E4D0E003C0FE01A0
:100FB00009DE2196C734D107D1F7F894FFCF650138
:100FC0000000070000000000950080003F30DB4F6C
:0A0FD000666D7D277F6F7673300099
:101E800011248FE594E09EBF8DBF24B614BE80E080
:101E900071D021FEC7C08EE06DD0AFE7BFEF809953
:101EA000FECF9096809BFDCFB9B91197F1F782E0F4
:101EB0008BB988E18AB94FD0C82F823569F45ED0DA
:101EC000E0E4FEE1A89583E08BD089D0E054F109ED
:101ED000C8F78DE23CD0EFCF8D7FD9F446D0D82F14
:101EE000A0E0B1E038D08D93DA13FCCFA0E0B1E0F0
:101EF00045D0C1110CC0FFBBEEBB8D918DBBE29AEA
:101F0000E19A3196E199FECFD150A9F7E2CF40D0C6
:101F1000E0CFC33041F429D0C82F30D0859117D0FD
:101F2000C150E1F7D6CFC13061F41FD0C82F26D001
:101F3000FFBBEEBBE09A8DB30AD03196C150C1F71A
:101F4000C8CFC13511F488E015D018D0C2CF5D9B41
:101F5000FECF8CB90895C59ABD9A5F9BFECF5C9960
:101F600010C0A8958CB1C5980895F5DFE82FF3DF70
:101F7000F82FF1CF98E191BD81BD0895ECDF80325B
:101F800019F088E0F7DFFFCF80EAE1CFFB01DC0149
:101F9000E07C70E47A0F9F01E0388EE1F80728F5C5
:101FA000309629F48FE38D938FEC8C93119790E00A
:101FB00045915D9145139160A713FACFF901A054A3
:101FC000B10990FF12C083E00BD081E00D901D900D
:101FD00007D03296A713FACFF90185E001D081E14D
:0E1FE00087BFE89517B610FCFDCF11240895B9
:061FFA000612C7CFE7400C
:00000001FF
