:020000040000FA
:100000000C9463000C94F9050C94D2050C948B00AD
:100010000C948B000C948B000C948B000C948B0034
:100020000C948B000C948B000C948B000C948B0024
:100030000C948B000C948B000C948B000C948B0014
:100040000C9488050C948B000C9446060C942006A6
:100050000C948B000C948B000C948B000C948B00F4
:100060000C948B000C948B000000000023002600F1
:10007000290000000000240027002A0000000000E2
:10008000250028002B0004040404040404040202D4
:100090000202020203030303030301020408102007
:1000A0004080010204081020010204081020000012
:1000B0000008000201000003040700000000000027
:1000C00000007806840911241FBECFEFD8E0DEBF00
:1000D000CDBF22E0ACE6B1E001C01D92A033B20773
:1000E000E1F711E0A0E0B1E0ECEDF8E102C005902D
:1000F0000D92AC36B107D9F710E0C2E6D0E004C0EB
:100100002197FE010E94690AC136D107C9F70E94F2
:10011000BA060C94610C0C940000833081F028F432
:10012000813099F08230A9F008958730A9F08830A5
:10013000C9F08430B1F4809180008F7D03C080913C
:1001400080008F7780938000089584B58F7784BD79
:10015000089584B58F7DFBCF8091B0008F77809319
:10016000B00008958091B0008F7DF9CF1F93CF9399
:10017000DF93282F30E0F901E255FF4F8491F90118
:10018000E656FF4FD491F901EA57FF4FC491CC23B3
:10019000A9F0162F81110E948D00EC2FF0E0EE0FD8
:1001A000FF1FE458FF4FA591B4918FB7F894EC91DD
:1001B000111108C0D095DE23DC938FBFDF91CF9162
:1001C0001F910895DE2BF8CFCF93DF9390E0FC01D1
:1001D000E656FF4F24918A579F4FFC018491882354
:1001E000D1F090E0880F991FFC01EE58FF4FA591C8
:1001F000B491FC01E458FF4FC591D49161110EC038
:100200009FB7F8948C91E22FE0958E238C932881F0
:10021000E223E8839FBFDF91CF9108958FB7F894D1
:10022000EC91E22BEC938FBFF6CF3FB7F89480911F
:100230007B0190917C01A0917D01B0917E0126B55A
:10024000A89B05C02F3F19F00196A11DB11D3FBF0E
:10025000BA2FA92F982F8827BC01CD01620F711DDD
:10026000811D911D42E0660F771F881F991F4A95D7
:10027000D1F708958F929F92AF92BF92CF92DF9263
:10028000EF92FF926B017C010E9415014B015C0112
:10029000C114D104E104F104B9F00E9415016819F8
:1002A00079098A099B09683E73408105910580F3AD
:1002B00021E0C21AD108E108F10888EE880E83E037
:1002C000981EA11CB11CE4CFFF90EF90DF90CF905F
:1002D000BF90AF909F908F90089508950895AF922A
:1002E000BF92CF92DF92EF92FF920F931F93CF9323
:1002F000DF936C017B018B01040F151FEB015E0185
:10030000AE18BF08C017D10759F06991D601ED9119
:10031000FC910190F081E02DC6010995892B79F7B8
:10032000C501DF91CF911F910F91FF90EF90DF906A
:10033000CF90BF90AF900895FC01538D448D252F31
:1003400030E0842F90E0821B930B541710F0CF966F
:10035000089501970895FC01918D828D981761F0A1
:10036000A28DAE0FBF2FB11D5D968C91928D9F5FB8
:100370009F73928F90E008958FEF9FEF08952FB7AE
:10038000F89480917F0190918001A0918101B091BA
:1003900082012FBF80938B0190938C01A0938D01DC
:1003A000B0938E0183E891E00E94AB0197FF26C0D5
:1003B0002FB7F89480917F0190918001A0918101E5
:1003C000B09182012FBF40918B0150918C016091BF
:1003D0008D0170918E01841B950BA60BB70B40917C
:1003E0008701509188016091890170918A01841779
:1003F0009507A607B707B0F28FEF9FEF0895FC01AE
:10040000918D828D981731F0828DE80FF11D858DC9
:1004100090E008958FEF9FEF0895FC01918D228D5C
:10042000892F90E0805C9F4F821B91098F739927E1
:10043000089583E891E00E940D0221E0892B09F4E0
:1004400020E0822F089580E090E0892B29F00E941F
:10045000190281110C9400000895FC01A48DA80FCD
:10046000B92FB11DA35ABF4F2C91848D90E00196F6
:100470008F739927848FA689B7892C93A089B18916
:100480008C91837080648C93938D848D981306C0B7
:100490000288F389E02D80818F7D80830895EF921B
:1004A000FF920F931F93CF93DF93EC0181E0888F2E
:1004B0009B8D8C8D98131AC0E889F989808185FFFE
:1004C00015C09FB7F894EE89FF896083E889F989A0
:1004D00080818370806480839FBF81E090E0DF91A2
:1004E000CF911F910F91FF90EF900895F62E0B8DF5
:1004F00010E00F5F1F4F0F731127E02E8C8D8E11B0
:100500000CC00FB607FCFACFE889F989808185FF16
:10051000F5CFCE010E942D02F1CFEB8DEC0FFD2F18
:10052000F11DE35AFF4FF0829FB7F8940B8FEA89D1
:10053000FB8980818062CFCFCF93DF93EC01888DE0
:100540008823B9F0AA89BB89E889F9898C9185FD4E
:1005500003C0808186FD0DC00FB607FCF7CF8C91DC
:1005600085FFF2CF808185FFEDCFCE010E942D0265
:10057000E9CFDF91CF910895CF93DF93D82FC8E0D3
:100580006D2F61708AE00E94B600D69561E08BE025
:100590000E94B60060E08BE00E94B600C15081F777
:1005A000DF91CF9108951F93CF93DF93EC01162F26
:1005B00080916D0181110AC0609104017091050163
:1005C00080910601909107010E943A01E12FF0E02D
:1005D000E25FFE4F80810E94BC02C330D10509F466
:1005E0005BC04CF4C130D10529F12297F1F1DF91C4
:1005F000CF911F910895C530D10509F47BC00CF44B
:1006000062C02697A1F761E085E00E94B60061E034
:1006100086E00E94B60061E087E00E94B60061E0DB
:1006200088E00E94B60061E084E00E94B60060E0CD
:1006300089E016C061E085E00E94B60061E086E0D6
:100640000E94B60061E087E00E94B60061E088E0A9
:100650000E94B60061E089E00E94B60060E084E09C
:10066000DF91CF911F910C94B60061E084E00E946D
:10067000B60061E086E00E94B60061E087E00E947B
:10068000B60061E088E00E94B60061E089E00E9467
:10069000B60060E085E0E4CF61E084E00E94B6004F
:1006A00061E085E00E94B60061E087E00E94B6004C
:1006B00061E088E00E94B60061E089E00E94B60037
:1006C00060E086E0CDCF61E085E00E94B60061E0A9
:1006D00086E00E94B60061E084E00E94B60061E01E
:1006E00088E00E94B60061E089E00E94B60060E008
:1006F00087E0B6CF61E085E00E94B60061E086E069
:100700000E94B60061E087E00E94B60061E084E0EC
:100710000E94B60061E089E00E94B60060E088E0D7
:100720009FCFFC0101900020E9F73197AF01481BF2
:10073000590BBC0183E891E00C946F018F929F925A
:10074000AF92BF920F931F93CF93DF93CDB7DEB7D6
:10075000A1970FB6F894DEBF0FBECDBF19A24230ED
:1007600008F44AE08E010F5D1F4F842E912CB12CAE
:10077000A12CA50194010E94470AE62FB901CA01E4
:10078000EA30F4F4E05DD801EE938D01232B242BA5
:10079000252B79F790E080E0109719F0CD010E94A9
:1007A0009103A1960FB6F894DEBF0FBECDBFDF91C7
:1007B000CF911F910F91BF90AF909F908F90089510
:1007C000E95CE1CFCF92DF92EF92FF92CF93DF937C
:1007D0006B017C016DE283E891E00E944F02EC0125
:1007E00066277727CB016C197D098E099F094AE09E
:1007F0000E949E038C0F9D1FDF91CF91FF90EF9081
:10080000DF90CF900895CF93DF930E949103EC0186
:100810008DE291E00E9491038C0F9D1FDF91CF919B
:100820000895CF93DF93E1EBF0E08491EDE9F0E000
:10083000D491E9E8F0E0C491CC2371F181110E94D8
:100840008D00EC2FF0E0EE0FFF1FE859FF4FA59150
:10085000B491EC91ED2301F180916C018823C9F0F2
:1008600080E391E00E94030480916E0190916F01FA
:10087000A0917001B09171010196A11DB11D8093ED
:100880006E0190936F01A0937001B093710110926B
:100890006C01DF91CF9108958BE391E00E940304F6
:1008A00081E080936C01F5CFEF92FF920F931F933D
:1008B000CF93DF937C018C01D0E0C0E0CE010E9499
:1008C000FA09F80181938F012196C430D105B1F75F
:1008D000C701DF91CF911F910F91FF90EF90089585
:1008E000CF93DF938EE491E00E940304D0E0C0E058
:1008F00060E0CE010E94020A10926E0110926F0118
:1009000010927001109271012196C430D10581F7C7
:10091000DF91CF9108950F931F93CF93DF938C01B5
:10092000EB01FC01808191810097E1F06881798180
:1009300061157105A9F0428153812C813D814217D7
:10094000530770F00E945A0C8C819D81F8019583A9
:1009500084831D821C82DF91CF911F910F91089596
:100960000E940B0B88819981F801918380838A8191
:100970009B81938382838C819D819583848319825B
:1009800018821B821A82E5CFFC0180819181009739
:1009900011F00C940B0B08950F931F93CF93DF93DB
:1009A000EC0188819981009759F02A813B812617B3
:1009B000370730F081E0DF91CF911F910F910895BB
:1009C0008B016F5F7F4F0E94940B009759F09983C2
:1009D00088831B830A832C813D81232B59F7FC01DB
:1009E0001082E8CF80E0E7CFEF92FF920F931F9342
:1009F000CF93DF93EC017B018A01BA010E94CC0402
:100A000028813981811114C02115310519F0C901DE
:100A10000E940B0B198218821D821C821B821A8273
:100A2000CE01DF91CF911F910F91FF90EF9008952C
:100A30001D830C83B701C9010E945A0CF1CF50E00D
:100A400040E06FE271E00C94F404AF92BF92CF9259
:100A5000DF92EF92FF920F931F93CF93DF93EC01FE
:100A60006B015A0179012417350720F48B2D5901A8
:100A7000E42EF82E198218821B821A821D821C8293
:100A8000CE010E941F05D60114960D911C91A0164F
:100A9000B10628F5E016F10608F48701D601ED91BC
:100AA000FC911197E00FF11FF08010826D917C9105
:100AB0006A0D7B1D61157105F1F0FB0101900020AD
:100AC000E9F73197AF01461B570BCE010E94F404A2
:100AD000F60180819181080F191FD801FC92CE0187
:100AE000DF91CF911F910F91FF90EF90DF90CF900A
:100AF000BF90AF90089588819981009711F00E946E
:100B00000B0B198218821D821C821B821A82E0CF75
:100B10001F920F920FB60F9211242F933F938F9332
:100B20009F93AF93BF9380917F0190918001A0919B
:100B30008101B091820130917A0123E0230F2D379A
:100B400058F50196A11DB11D20937A0180937F0174
:100B500090938001A0938101B093820180917B01E9
:100B600090917C01A0917D01B0917E010196A11D23
:100B7000B11D80937B0190937C01A0937D01B09384
:100B80007E01BF91AF919F918F913F912F910F90D7
:100B90000FBE0F901F90189526E8230F0296A11DF7
:100BA000B11DD2CF1F920F920FB60F9211242F9327
:100BB0003F934F935F936F937F938F939F93AF93E5
:100BC000BF93EF93FF93E0910201F0910301099528
:100BD000FF91EF91BF91AF919F918F917F916F9115
:100BE0005F914F913F912F910F900FBE0F901F90EB
:100BF00018951F920F920FB60F9211242F933F93C7
:100C00004F935F936F937F938F939F93AF93BF9314
:100C1000EF93FF93E0910001F09101010995FF919D
:100C2000EF91BF91AF919F918F917F916F915F9164
:100C30004F913F912F910F900FBE0F901F901895DD
:100C40001F920F920FB60F9211242F933F934F9341
:100C50005F936F937F938F939F93AF93BF93EF9324
:100C6000FF9383E891E00E942D02FF91EF91BF91E5
:100C7000AF919F918F917F916F915F914F913F9134
:100C80002F910F900FBE0F901F9018951F920F92EB
:100C90000FB60F9211242F938F939F93EF93FF938F
:100CA000E0919301F09194018081E0919901F0919C
:100CB0009A0182FD1BC0908180919C018F5F8F7390
:100CC00020919D01821741F0E0919C01F0E0ED57E9
:100CD000FE4F958F80939C01FF91EF919F918F9193
:100CE0002F910F900FBE0F901F9018958081F4CF19
:100CF000E3E8F1E01382128288EE93E0A0E0B0E036
:100D000084839583A683B7838FE191E09183808369
:100D100085EC90E09587848784EC90E097878687C0
:100D200080EC90E0918B808B81EC90E0938B828BB8
:100D300082EC90E0958B848B86EC90E0978B868B91
:100D4000118E128E138E148EE6E2F2E01182108262
:100D50001382128215821482CF010E941F05E0E2E5
:100D6000F2E0118210821382128215821482CF0166
:100D70000C941F05CF93DF93CDB7DEB7A7970FB6BF
:100D8000F894DEBF0FBECDBF789484B5826084BD79
:100D900084B5816084BD85B5826085BD85B581607F
:100DA00085BD80916E00816080936E0010928100FD
:100DB00080918100826080938100809181008160B8
:100DC0008093810080918000816080938000809179
:100DD000B10084608093B1008091B0008160809305
:100DE000B00080917A00846080937A0080917A00CC
:100DF000826080937A0080917A00816080937A008B
:100E000080917A00806880937A001092C100E0910E
:100E10009301F091940182E08083E0918F01F09141
:100E200090011082E0919101F09192018FEC80830A
:100E300010929B01E0919701F091980186E08083E8
:100E4000E0919501F0919601808180618083E0912D
:100E50009501F0919601808188608083E0919501F1
:100E6000F0919601808180688083E0919501F091F6
:100E7000960180818F7D808381E194E090930301CE
:100E80008093020180916900837F84608093690070
:100E9000E99A80E794E090930101809300018091AA
:100EA00069008C7F816080936900E89A61E08AE044
:100EB0000E94E40061E08BE00E94E40061E084E0D5
:100EC0000E94E40061E085E00E94E40061E086E0C9
:100ED0000E94E40061E087E00E94E40061E088E0B5
:100EE0000E94E40061E089E00E94E40060E083E0A9
:100EF0000E94E40060E082E00E94E40061E086E09D
:100F00000E94B60061E084E00E94B60061E085E0E6
:100F10000E94B60061E087E00E94B60061E088E0D0
:100F20000E94B60061E089E00E94B60004E011E092
:100F30006AE082E090E00E94D3026BE083E090E000
:100F40000E94D3026CE084E090E00E94D302015042
:100F5000110971F78FE30E94BC0260E084E00E94F7
:100F6000B60061E085E00E94B60061E086E00E9484
:100F7000B60061E087E00E94B60061E088E00E9470
:100F8000B60061E089E00E94B6008E010F5F1F4F3E
:100F9000C8010E94540489819A81AB81BC811816D2
:100FA00019061A061B0644F480936E0190936F0194
:100FB000A0937001B0937101222423949BE0492EE9
:100FC000512C612C712C27E0822E912CA12CB12C5C
:100FD00083E891E00E940D02892B09F4A7C01A82D0
:100FE00019821C821B821E821D82C8010E941F055D
:100FF0000E94BF0197FD1EC08A309105D9F08AA3D7
:101000001BA2ED80FE802FEFE21AF20AB701C801A1
:101010000E94CC04882361F329813A818D819E81CD
:10102000BE016E5D7F4F820F931F0E945A0CFE829D
:10103000ED82DECFB80180E292E00E948B04C8010D
:101040000E94C404209124023091250250E040E027
:1010500060E272E0C8010E94250589819A810097AB
:1010600009F4CFC00E948C096093760170937701D8
:101070008093780190937901C8010E94C404209163
:1010800024023091250242E050E060E272E0C801A3
:101090000E94250589819A81009709F4B6C00E94B3
:1010A0008C09609372017093730180937401909323
:1010B0007501C8010E94C40461E070E080E090E026
:1010C0000E943A018CE591E00E94910360917601C3
:1010D00070917701809178019091790197FF99C083
:1010E0000E94E20385E691E00E9491036091720103
:1010F00070917301809174019091750197FF8DC07B
:101100000E94E2038DE291E00E94910380917601BA
:1011100090917701A0917801B091790180936E014F
:1011200090936F01A0937001B093710180916E0153
:1011300090916F01A0917001B09171018436910579
:10114000A105B10508F46DC010926D0180920401F3
:1011500090920501A0920601B092070160916E0184
:1011600070916F0180917001909171011BA21AA280
:101170001DA21CA21FA21EA22AE0A8010E94C8094B
:10118000F80101900020E9F73197AF01401B510BA6
:10119000B801CE0182960E94F404BE016E5D7F4FBD
:1011A00086E292E00E948B04CE0182960E94C404E3
:1011B000C0902A02D0902B0221E0C21AD108F12C53
:1011C000E12CCE14DF040CF461C08FEFE81AF80AAA
:1011D000A70141505109970166E272E0C8010E94DF
:1011E000250589819A81312C009719F00E948C097C
:1011F000362EC8010E94C404632DC7010E94D30289
:10120000E0CF60E070E0CB012FCF60E070E0CB0179
:1012100048CF4AE00E949E0365CF4AE00E949E03A9
:1012200071CF80916E0190916F01A0917001B0918A
:101230007101883E9340A105B10518F020926D011F
:101240008DCF80916E0190916F01A0917001B0914E
:10125000710180319742A105B10580F780916E013F
:1012600090916F01A0917001B09171010A97A10551
:10127000B10508F073CF10926D01409204015092B5
:101280000501609206017092070168CF19821A82E7
:101290001B821C82C8010E94540440916E0150912F
:1012A0006F01609170017091710189819A81AB81A8
:1012B000BC81481759076A077B07C9F08EE6C82E1C
:1012C00081E0D82EF12CE12CF60131906F01C7019D
:1012D0000E94FA09381621F0632DC7010E94020A04
:1012E000FFEFEF1AFF0A24E0E216F10469F780E04D
:1012F00090E0892B09F46CCE0E941902882309F42E
:1013000067CE0E94000064CE80E292E00E94C40496
:1013100086E292E00C94C4041F93FC01992788276D
:10132000BC01E89411911032E9F3193010F01E302D
:10133000C8F31B3251F01D3249F4689406C00E9474
:10134000B309610F711D811D911D119110531A3048
:10135000B0F33EF490958095709561957F4F8F4FD7
:101360009F4F1F910895592F482F372F262F660F13
:10137000771F881F991F660F771F881F991F620F9D
:10138000731F841F951F660F771F881F991F08956D
:10139000BB27FA01A62F6217710581059105330B52
:1013A00030FB66F0AA27660F771F881F991FAA1FB8
:1013B000A21710F0A21B63953850A9F7A05DAA33BD
:1013C00008F0A95DA19336F7B111B1931082CA015B
:1013D0000C94EA09DC01FC01672F71917723E1F796
:1013E000329704C07C916D9370836291AE17BF07F2
:1013F000C8F30895F999FECF92BD81BDF89A992757
:1014000080B50895262FF999FECF1FBA92BD81BDF0
:1014100020BD0FB6F894FA9AF99A0FBE0196089576
:101420002F923F924F925F926F927F928F929F92F4
:10143000AF92BF92CF92DF92EF92FF920F931F93E2
:10144000CF93DF93CDB7DEB7CA1BDB0B0FB6F89493
:10145000DEBF0FBECDBF09942A88398848885F84D3
:101460006E847D848C849B84AA84B984C884DF8044
:10147000EE80FD800C811B81AA81B981CE0FD11D28
:101480000FB6F894DEBF0FBECDBFED010895A1E207
:101490001A2EAA1BBB1BFD010DC0AA1FBB1FEE1FEE
:1014A000FF1FA217B307E407F50720F0A21BB30B39
:1014B000E40BF50B661F771F881F991F1A9469F7B5
:1014C00060957095809590959B01AC01BD01CF0111
:1014D0000895EE0FFF1F0590F491E02D09940F93EE
:1014E0001F93CF93DF938230910510F482E090E058
:1014F000E0912E02F0912F0230E020E0B0E0A0E079
:10150000309799F42115310509F44AC0281B390B8D
:1015100024303105D8F58A819B816115710589F1E7
:10152000FB0193838283FE0111C0408151810281BE
:10153000138148175907E0F04817590799F4109795
:1015400061F012960C93129713961C933296CF016A
:10155000DF91CF911F910F91089500932E02109368
:101560002F02F4CF2115310551F04217530738F0FF
:10157000A901DB019A01BD01DF01F801C1CFEF0133
:10158000F9CF90932F0280932E02CDCFFE01E20F70
:10159000F31F819391932250310939832883D7CF48
:1015A00020912C0230912D02232B41F420910A012D
:1015B00030910B0130932D0220932C0220910801D1
:1015C000309109012115310541F42DB73EB7409105
:1015D0000C0150910D01241B350BE0912C02F09170
:1015E0002D02E217F307A0F42E1B3F0B2817390733
:1015F00078F0AC014E5F5F4F2417350748F04E0F6F
:101600005F1F50932D0240932C02819391939FCFA3
:10161000F0E0E0E09CCFCF93DF930097E9F0FC018E
:10162000329713821282A0912E02B0912F02ED0107
:1016300030E020E01097A1F420813181820F931FC8
:1016400020912C0230912D022817390709F061C032
:10165000F0932D02E0932C02DF91CF910895EA01DF
:10166000CE17DF07E8F54A815B819E0141155105E0
:10167000B1F7E901FB83EA8349915991C40FD51F62
:10168000EC17FD0761F4808191810296840F951F0C
:10169000E90199838883828193819B838A83F0E027
:1016A000E0E012968D919C9113970097B9F52D91DA
:1016B0003C911197CD010296820F931F20912C022D
:1016C00030912D022817390739F6309751F51092CD
:1016D0002F0210922E02B0932D02A0932C02BCCFA9
:1016E000D383C28340815181840F951FC817D907C6
:1016F00061F44E5F5F4F88819981480F591F518374
:1017000040838A819B81938382832115310509F06F
:10171000B0CFF0932F02E0932E029ECFFD01DC01AB
:10172000C0CF13821282D7CFB0E0A0E0EAE9FBE09D
:101730000C94120A8C01009751F4CB010E946F0A9D
:101740008C01C801CDB7DEB7E0E10C942E0AFC0194
:10175000E60FF71F9C0122503109E217F30708F446
:101760009DC0D901CD91DC911197C617D70798F08C
:10177000C530D10530F3CE0104978617970708F3DB
:10178000C61BD70B2297C193D1936D937C93CF0146
:101790000E940B0BD6CF5B01AC1ABD0A4C018C0E1C
:1017A0009D1EA0912E02B0912F02512C412CF12CA4
:1017B000E12C109731F580912C0290912D02881523
:1017C000990509F05CC04616570608F058C080918C
:1017D000080190910901009741F48DB79EB740919F
:1017E0000C0150910D01841B950BE817F90708F0C7
:1017F00055C0F0932D02E0932C02F90171836083B0
:10180000A0CF8D919C91119712966C901297139680
:101810007C901397A815B90559F56C0142E0C40EE8
:10182000D11CCA14DB0420F1AC014A195B09DA01AE
:101830001296159780F06282738251834083D9019A
:101840006D937C93E114F10471F0D7011396FC932E
:10185000EE93129776CF22968C0F9D1FF9019183FC
:101860008083F301EFCFF0932F02E0932E0269CF34
:101870004816590608F42C017D01D3019ACFCB01FB
:101880000E946F0A7C01009749F0AE01B8010E94E6
:10189000510CC8010E940B0B870153CF10E000E0F0
:1018A00050CFFB01DC0102C001900D92415050402D
:1018B000D8F70895FB01DC0101900D920020E1F7BB
:1018C000089510E0C2E6D0E004C0FE010E94690A5B
:1018D0002196C336D107C9F7F894FFCF6E016E0188
:1018E000070000000000300280003F30DB4F666DD3
:1018F0007D277F6F767330000000004F026F019CE0
:10190000019C020D02AB01FF010D0A0061646469D4
:101910006E672E2E2E200073657474696E672074B6
:101920006F206C6F772E2E2E2000726573657420E9
:101930006565702E2E2E2000646174613A2020208F
:0819400000202C2020200000F3
:107800000C94343C0C94513C0C94513C0C94513CE1
:107810000C94513C0C94513C0C94513C0C94513CB4
:107820000C94513C0C94513C0C94513C0C94513CA4
:107830000C94513C0C94513C0C94513C0C94513C94
:107840000C94513C0C94513C0C94513C0C94513C84
:107850000C94513C0C94513C0C94513C0C94513C74
:107860000C94513C0C94513C11241FBECFEFD8E036
:10787000DEBFCDBF11E0A0E0B1E0ECE9FFE702C060
:1078800005900D92A230B107D9F712E0A2E0B1E065
:1078900001C01D92AD30B107E1F70E942D3D0C945F
:1078A000CC3F0C94003C982F959595959595959582
:1078B000905D8F708A307CF0282F295A8091C0000B
:1078C00085FFFCCF9093C6008091C00085FFFCCF60
:1078D0002093C6000895282F205DF0CF982F809127
:1078E000C00085FFFCCF9093C6000895EF92FF92F1
:1078F0000F931F93EE24FF2487018091C00087FD22
:1079000017C00894E11CF11C011D111D81E4E8164B
:1079100082E4F8068FE0080780E0180770F3E09132
:107920000401F091050109958091C00087FFE9CF1E
:107930008091C6001F910F91FF90EF9008950E94D3
:10794000763C982F8091C00085FFFCCF9093C600B5
:1079500091362CF490330CF09053892F089597555D
:10796000892F08951F930E949F3C182F0E949F3CCF
:107970001295107F810F1F9108951F93182F882350
:1079800021F00E94763C1150E1F71F9108951F935A
:10799000182F0E94763C803249F0809103018F5F5E
:1079A000809303018530C1F01F9108958091C0003C
:1079B00085FFFCCF84E18093C6008091C00085FFE5
:1079C000FCCF1093C6008091C00085FFFCCF80E102
:1079D0008093C6001F910895E0910401F091050184
:1079E00009951F9108950E94763C803241F0809164
:1079F00003018F5F80930301853081F008958091AA
:107A0000C00085FFFCCF84E18093C6008091C00058
:107A100085FFFCCF80E18093C6000895E0910401CA
:107A2000F09105010995089540E951E08823A1F0FE
:107A30002D9A28EE33E0FA013197F1F721503040CA
:107A4000D1F72D9828EE33E0FA013197F1F7215064
:107A50003040D1F7815061F708953F924F925F9285
:107A60006F927F928F929F92AF92BF92CF92DF924E
:107A7000EF92FF920F931F93CF93DF93000080E16B
:107A80008093C4001092C50088E18093C10086E015
:107A90008093C2005098589A259A81E00E94143D24
:107AA00024E1F22E9EE1E92E85E9D82E0FE0C02ECA
:107AB00010E1B12EAA24A394B1E49B2EA6E58A2E50
:107AC000F2E57F2EE0E26E2E79E4572E63E5462E36
:107AD00050E5352E0E94763C8033B1F18133B9F107
:107AE000803409F46FC0813409F476C0823409F41B
:107AF00085C0853409F488C0803531F1823521F1A3
:107B0000813511F1853509F485C0863509F48DC0BC
:107B1000843609F496C0843709F403C1853709F423
:107B200072C1863709F466C0809103018F5F80932C
:107B30000301853079F6E0910401F0910501099582
:107B40000E94763C803351F60E94F33CC3CF0E94E2
:107B5000763C803249F78091C00085FFFCCFF092DF
:107B6000C6008091C00085FFFCCF9092C600809136
:107B7000C00085FFFCCF8092C6008091C00085FFC9
:107B8000FCCF7092C6008091C00085FFFCCF609250
:107B9000C6008091C00085FFFCCF5092C600809146
:107BA000C00085FFFCCF4092C6008091C00085FFD9
:107BB000FCCF3092C6008091C00085FFFCCFB09210
:107BC000C60088CF0E94763C863808F4BDCF0E945C
:107BD000763C0E94F33C7ECF0E94763C803809F4CC
:107BE0009CC0813809F40BC1823809F43CC1883942
:107BF00009F48FC080E00E94C73C6CCF84E10E94F2
:107C0000BD3C0E94F33C66CF85E00E94BD3C0E94D3
:107C1000F33C60CF0E94763C809306010E94763C44
:107C2000809307010E94F33C55CF0E94763C80333D
:107C300009F41DC183E00E94BD3C80E00E94C73C66
:107C400049CF0E94763C809309020E94763C809343
:107C5000080280910C028E7F80930C020E94763C79
:107C6000853409F415C18091080290910902892B8D
:107C700089F000E010E00E94763CF801E85FFE4FDA
:107C800080830F5F1F4F80910802909109020817AF
:107C9000190788F30E94763C803209F045CF809125
:107CA0000C0280FF01C16091060170910701660F0F
:107CB000771F7093070160930601A0910802B091AD
:107CC00009021097C9F0E8E0F1E09B01AD014E0F09
:107CD0005F1FF999FECF32BD21BD819180BDFA9A17
:107CE000F99A2F5F3F4FE417F50799F76A0F7B1F4B
:107CF00070930701609306018091C00085FFFCCF5F
:107D0000F092C6008091C00085FFFCCFB092C60003
:107D1000E1CE83E00E94C73CDDCE82E00E94C73CFA
:107D2000D9CE0E94763C809309020E94763C8093D3
:107D300008028091060190910701880F991F909386
:107D40000701809306010E94763C853409F4A6C0A1
:107D500080910C028E7F80930C020E94763C8032D0
:107D600009F0B8CE8091C00085FFFCCFF092C6002C
:107D7000609108027091090261157105B9F140E046
:107D800050E080910C02A82FA170B82FB27011C0E2
:107D9000BB2309F45CC0E0910601F0910701319624
:107DA000F0930701E09306014F5F5F4F46175707B7
:107DB000E8F4AA2369F3F999FECF209106013091E6
:107DC000070132BD21BDF89A90B58091C00085FFB2
:107DD000FCCF9093C6002F5F3F4F30930701209355
:107DE00006014F5F5F4F4617570718F38091C00099
:107DF00085FDE5CE8091C00085FFF8CFE0CE81E023
:107E00000E94C73C67CE0E94763C803209F08CCE3F
:107E10008091C00085FFFCCFF092C6008091C00029
:107E200085FFFCCFE092C6008091C00085FFFCCFAB
:107E3000D092C6008091C00085FFFCCFC092C600E2
:107E40008091C00085FFFCCFB092C60043CEE09188
:107E50000601F091070194918091C00085FFFCCF4D
:107E60009093C6009CCF80E10E94C73C33CE0E9415
:107E7000763C0E94763C182F0E94763C112309F430
:107E800083C0113009F484C08FE00E94C73C22CE29
:107E900080910C02816080930C02E5CE80910C02EF
:107EA000816080930C0259CF809107018823880F4D
:107EB000880B8A2180930B02809106019091070123
:107EC000880F991F90930701809306018091080203
:107ED00080FF09C080910802909109020196909359
:107EE000090280930802F894F999FECF1127E091D6
:107EF0000601F0910701C8E0D1E08091080290915D
:107F00000902103091F40091570001700130D9F34B
:107F100003E000935700E89500915700017001308D
:107F2000D9F301E100935700E89509901990009169
:107F3000570001700130D9F301E000935700E89534
:107F40001395103498F011270091570001700130FB
:107F5000D9F305E000935700E895009157000170B0
:107F60000130D9F301E100935700E895329602976A
:107F700009F0C7CF103011F00296E5CF112480919F
:107F8000C00085FFB9CEBCCE8EE10E94C73CA2CD19
:0E7F900085E90E94C73C9ECDF894FFCF80008B
:00000001FF
